{
  "contractName": "EtherStream",
  "abi": [
    {
      "constant": true,
      "inputs": [],
      "name": "content_count",
      "outputs": [
        {
          "name": "",
          "type": "uint256"
        }
      ],
      "payable": false,
      "stateMutability": "view",
      "type": "function"
    },
    {
      "constant": true,
      "inputs": [],
      "name": "created",
      "outputs": [
        {
          "name": "",
          "type": "uint256"
        }
      ],
      "payable": false,
      "stateMutability": "view",
      "type": "function"
    },
    {
      "constant": true,
      "inputs": [],
      "name": "title",
      "outputs": [
        {
          "name": "",
          "type": "string"
        }
      ],
      "payable": false,
      "stateMutability": "view",
      "type": "function"
    },
    {
      "constant": true,
      "inputs": [
        {
          "name": "",
          "type": "uint256"
        }
      ],
      "name": "streams",
      "outputs": [
        {
          "name": "title",
          "type": "string"
        },
        {
          "name": "preview_uri",
          "type": "string"
        },
        {
          "name": "addr",
          "type": "address"
        },
        {
          "name": "love",
          "type": "uint256"
        },
        {
          "name": "creator",
          "type": "address"
        },
        {
          "name": "created",
          "type": "uint256"
        }
      ],
      "payable": false,
      "stateMutability": "view",
      "type": "function"
    },
    {
      "constant": true,
      "inputs": [],
      "name": "owner",
      "outputs": [
        {
          "name": "",
          "type": "address"
        }
      ],
      "payable": false,
      "stateMutability": "view",
      "type": "function"
    },
    {
      "constant": true,
      "inputs": [],
      "name": "public_stream",
      "outputs": [
        {
          "name": "",
          "type": "bool"
        }
      ],
      "payable": false,
      "stateMutability": "view",
      "type": "function"
    },
    {
      "constant": true,
      "inputs": [
        {
          "name": "",
          "type": "uint256"
        }
      ],
      "name": "content",
      "outputs": [
        {
          "name": "title",
          "type": "string"
        },
        {
          "name": "preview_uri",
          "type": "string"
        },
        {
          "name": "uri",
          "type": "string"
        },
        {
          "name": "love",
          "type": "uint256"
        },
        {
          "name": "creator",
          "type": "address"
        },
        {
          "name": "created",
          "type": "uint256"
        }
      ],
      "payable": false,
      "stateMutability": "view",
      "type": "function"
    },
    {
      "constant": true,
      "inputs": [],
      "name": "stream_count",
      "outputs": [
        {
          "name": "",
          "type": "uint256"
        }
      ],
      "payable": false,
      "stateMutability": "view",
      "type": "function"
    },
    {
      "inputs": [
        {
          "name": "_owner",
          "type": "address"
        },
        {
          "name": "_title",
          "type": "string"
        },
        {
          "name": "_public_stream",
          "type": "bool"
        }
      ],
      "payable": false,
      "stateMutability": "nonpayable",
      "type": "constructor"
    },
    {
      "anonymous": false,
      "inputs": [
        {
          "indexed": false,
          "name": "content_id",
          "type": "uint256"
        },
        {
          "indexed": false,
          "name": "title",
          "type": "string"
        },
        {
          "indexed": false,
          "name": "uri",
          "type": "string"
        },
        {
          "indexed": false,
          "name": "preview_uri",
          "type": "string"
        }
      ],
      "name": "ContentAdded",
      "type": "event"
    },
    {
      "constant": false,
      "inputs": [
        {
          "name": "_title",
          "type": "string"
        },
        {
          "name": "_uri",
          "type": "string"
        },
        {
          "name": "_preview_uri",
          "type": "string"
        }
      ],
      "name": "newContent",
      "outputs": [
        {
          "name": "ret_content_count",
          "type": "uint256"
        }
      ],
      "payable": false,
      "stateMutability": "nonpayable",
      "type": "function"
    },
    {
      "constant": false,
      "inputs": [
        {
          "name": "_title",
          "type": "string"
        },
        {
          "name": "_addr",
          "type": "address"
        },
        {
          "name": "_preview_uri",
          "type": "string"
        }
      ],
      "name": "newStream",
      "outputs": [
        {
          "name": "ret_streams_count",
          "type": "uint256"
        }
      ],
      "payable": false,
      "stateMutability": "nonpayable",
      "type": "function"
    },
    {
      "constant": false,
      "inputs": [
        {
          "name": "content_id",
          "type": "uint256"
        }
      ],
      "name": "giveLove",
      "outputs": [],
      "payable": true,
      "stateMutability": "payable",
      "type": "function"
    }
  ],
  "bytecode": "0x60806040523480156200001157600080fd5b50604051620014fd380380620014fd8339810180604052810190808051906020019092919080518201929190602001805190602001909291905050504260008190555082600160006101000a81548173ffffffffffffffffffffffffffffffffffffffff021916908373ffffffffffffffffffffffffffffffffffffffff1602179055508160029080519060200190620000ad929190620000d1565b5080600360006101000a81548160ff02191690831515021790555050505062000180565b828054600181600116156101000203166002900490600052602060002090601f016020900481019282601f106200011457805160ff191683800117855562000145565b8280016001018555821562000145579182015b828111156200014457825182559160200191906001019062000127565b5b50905062000154919062000158565b5090565b6200017d91905b80821115620001795760008160009055506001016200015f565b5090565b90565b61136d80620001906000396000f3006080604052600436106100af576000357c0100000000000000000000000000000000000000000000000000000000900463ffffffff16806302336692146100b457806317ef338b146100df578063325a19f1146101e85780634a79d50c146102135780635bc9607e146102a357806364d60d91146102c35780638da5cb5b14610449578063aa58c022146104a0578063baa0b806146104cf578063c99c3dad1461068e578063d6be24f714610771575b600080fd5b3480156100c057600080fd5b506100c961079c565b6040518082815260200191505060405180910390f35b3480156100eb57600080fd5b506101d2600480360381019080803590602001908201803590602001908080601f0160208091040260200160405190810160405280939291908181526020018383808284378201915050505050509192919290803590602001908201803590602001908080601f0160208091040260200160405190810160405280939291908181526020018383808284378201915050505050509192919290803590602001908201803590602001908080601f01602080910402602001604051908101604052809392919081815260200183838082843782019150505050505091929192905050506107a2565b6040518082815260200191505060405180910390f35b3480156101f457600080fd5b506101fd610a9c565b6040518082815260200191505060405180910390f35b34801561021f57600080fd5b50610228610aa2565b6040518080602001828103825283818151815260200191508051906020019080838360005b8381101561026857808201518184015260208101905061024d565b50505050905090810190601f1680156102955780820380516001836020036101000a031916815260200191505b509250505060405180910390f35b6102c160048036038101908080359060200190929190505050610b40565b005b3480156102cf57600080fd5b506102ee60048036038101908080359060200190929190505050610bf8565b6040518080602001806020018773ffffffffffffffffffffffffffffffffffffffff1673ffffffffffffffffffffffffffffffffffffffff1681526020018681526020018573ffffffffffffffffffffffffffffffffffffffff1673ffffffffffffffffffffffffffffffffffffffff168152602001848152602001838103835289818151815260200191508051906020019080838360005b838110156103a2578082015181840152602081019050610387565b50505050905090810190601f1680156103cf5780820380516001836020036101000a031916815260200191505b50838103825288818151815260200191508051906020019080838360005b838110156104085780820151818401526020810190506103ed565b50505050905090810190601f1680156104355780820380516001836020036101000a031916815260200191505b509850505050505050505060405180910390f35b34801561045557600080fd5b5061045e610db3565b604051808273ffffffffffffffffffffffffffffffffffffffff1673ffffffffffffffffffffffffffffffffffffffff16815260200191505060405180910390f35b3480156104ac57600080fd5b506104b5610dd9565b604051808215151515815260200191505060405180910390f35b3480156104db57600080fd5b506104fa60048036038101908080359060200190929190505050610dec565b604051808060200180602001806020018781526020018673ffffffffffffffffffffffffffffffffffffffff1673ffffffffffffffffffffffffffffffffffffffff16815260200185815260200184810384528a818151815260200191508051906020019080838360005b83811015610580578082015181840152602081019050610565565b50505050905090810190601f1680156105ad5780820380516001836020036101000a031916815260200191505b50848103835289818151815260200191508051906020019080838360005b838110156105e65780820151818401526020810190506105cb565b50505050905090810190601f1680156106135780820380516001836020036101000a031916815260200191505b50848103825288818151815260200191508051906020019080838360005b8381101561064c578082015181840152602081019050610631565b50505050905090810190601f1680156106795780820380516001836020036101000a031916815260200191505b50995050505050505050505060405180910390f35b34801561069a57600080fd5b5061075b600480360381019080803590602001908201803590602001908080601f0160208091040260200160405190810160405280939291908181526020018383808284378201915050505050509192919290803573ffffffffffffffffffffffffffffffffffffffff169060200190929190803590602001908201803590602001908080601f016020809104026020016040519081016040528093929190818152602001838380828437820191505050505050919291929050505061101f565b6040518082815260200191505060405180910390f35b34801561077d57600080fd5b506107866111e6565b6040518082815260200191505060405180910390f35b60055481565b60006107ac6111ec565b848160000181905250838160400181905250828160200181905250600181606001818152505033816080019073ffffffffffffffffffffffffffffffffffffffff16908173ffffffffffffffffffffffffffffffffffffffff1681525050428160a001818152505060048190806001815401808255809150509060018203906000526020600020906006020160009091929091909150600082015181600001908051906020019061085e929190611239565b50602082015181600101908051906020019061087b929190611239565b506040820151816002019080519060200190610898929190611239565b506060820151816003015560808201518160040160006101000a81548173ffffffffffffffffffffffffffffffffffffffff021916908373ffffffffffffffffffffffffffffffffffffffff16021790555060a082015181600501555050506004805490506005819055507fbd39459eb5dfa9dc1565d46290988a236f92828d81660967143be77ab9f0492860055482600001518360400151846020015160405180858152602001806020018060200180602001848103845287818151815260200191508051906020019080838360005b83811015610984578082015181840152602081019050610969565b50505050905090810190601f1680156109b15780820380516001836020036101000a031916815260200191505b50848103835286818151815260200191508051906020019080838360005b838110156109ea5780820151818401526020810190506109cf565b50505050905090810190601f168015610a175780820380516001836020036101000a031916815260200191505b50848103825285818151815260200191508051906020019080838360005b83811015610a50578082015181840152602081019050610a35565b50505050905090810190601f168015610a7d5780820380516001836020036101000a031916815260200191505b5097505050505050505060405180910390a16005549150509392505050565b60005481565b60028054600181600116156101000203166002900480601f016020809104026020016040519081016040528092919081815260200182805460018160011615610100020316600290048015610b385780601f10610b0d57610100808354040283529160200191610b38565b820191906000526020600020905b815481529060010190602001808311610b1b57829003601f168201915b505050505081565b34600482815481101515610b5057fe5b906000526020600020906006020160030160008282540192505081905550600481815481101515610b7d57fe5b906000526020600020906006020160040160009054906101000a900473ffffffffffffffffffffffffffffffffffffffff1673ffffffffffffffffffffffffffffffffffffffff166108fc349081150290604051600060405180830381858888f19350505050158015610bf4573d6000803e3d6000fd5b5050565b600681815481101515610c0757fe5b9060005260206000209060060201600091509050806000018054600181600116156101000203166002900480601f016020809104026020016040519081016040528092919081815260200182805460018160011615610100020316600290048015610cb35780601f10610c8857610100808354040283529160200191610cb3565b820191906000526020600020905b815481529060010190602001808311610c9657829003601f168201915b505050505090806001018054600181600116156101000203166002900480601f016020809104026020016040519081016040528092919081815260200182805460018160011615610100020316600290048015610d515780601f10610d2657610100808354040283529160200191610d51565b820191906000526020600020905b815481529060010190602001808311610d3457829003601f168201915b5050505050908060020160009054906101000a900473ffffffffffffffffffffffffffffffffffffffff16908060030154908060040160009054906101000a900473ffffffffffffffffffffffffffffffffffffffff16908060050154905086565b600160009054906101000a900473ffffffffffffffffffffffffffffffffffffffff1681565b600360009054906101000a900460ff1681565b600481815481101515610dfb57fe5b9060005260206000209060060201600091509050806000018054600181600116156101000203166002900480601f016020809104026020016040519081016040528092919081815260200182805460018160011615610100020316600290048015610ea75780601f10610e7c57610100808354040283529160200191610ea7565b820191906000526020600020905b815481529060010190602001808311610e8a57829003601f168201915b505050505090806001018054600181600116156101000203166002900480601f016020809104026020016040519081016040528092919081815260200182805460018160011615610100020316600290048015610f455780601f10610f1a57610100808354040283529160200191610f45565b820191906000526020600020905b815481529060010190602001808311610f2857829003601f168201915b505050505090806002018054600181600116156101000203166002900480601f016020809104026020016040519081016040528092919081815260200182805460018160011615610100020316600290048015610fe35780601f10610fb857610100808354040283529160200191610fe3565b820191906000526020600020905b815481529060010190602001808311610fc657829003601f168201915b5050505050908060030154908060040160009054906101000a900473ffffffffffffffffffffffffffffffffffffffff16908060050154905086565b60006110296112b9565b84816000018190525083816040019073ffffffffffffffffffffffffffffffffffffffff16908173ffffffffffffffffffffffffffffffffffffffff1681525050828160200181905250600181606001818152505033816080019073ffffffffffffffffffffffffffffffffffffffff16908173ffffffffffffffffffffffffffffffffffffffff1681525050428160a001818152505060068190806001815401808255809150509060018203906000526020600020906006020160009091929091909150600082015181600001908051906020019061110a929190611239565b506020820151816001019080519060200190611127929190611239565b5060408201518160020160006101000a81548173ffffffffffffffffffffffffffffffffffffffff021916908373ffffffffffffffffffffffffffffffffffffffff1602179055506060820151816003015560808201518160040160006101000a81548173ffffffffffffffffffffffffffffffffffffffff021916908373ffffffffffffffffffffffffffffffffffffffff16021790555060a082015181600501555050506006805490506007819055506007549150509392505050565b60075481565b60c06040519081016040528060608152602001606081526020016060815260200160008152602001600073ffffffffffffffffffffffffffffffffffffffff168152602001600081525090565b828054600181600116156101000203166002900490600052602060002090601f016020900481019282601f1061127a57805160ff19168380011785556112a8565b828001600101855582156112a8579182015b828111156112a757825182559160200191906001019061128c565b5b5090506112b5919061131c565b5090565b60c0604051908101604052806060815260200160608152602001600073ffffffffffffffffffffffffffffffffffffffff16815260200160008152602001600073ffffffffffffffffffffffffffffffffffffffff168152602001600081525090565b61133e91905b8082111561133a576000816000905550600101611322565b5090565b905600a165627a7a723058201f10e9d232c7786359f480b54d38f78cf6e131859e9fba6c26250a51c51cd8cf0029",
  "source": "pragma solidity ^0.4.10;\n\n// Used to build new streams\n// contract StreamFactory{\n//   EtherStream[] public streams;\n\n//   // Constructor\n//   function StreamFactory()\n//   public\n//   {\n//   }\n\n//   // Create a new stream\n//   function newStream(string _title, bool _public)\n//   public\n//   returns(EtherStream newStream)\n//   {\n//     EtherStream s = new EtherStream(msg.sender, _title, _public);\n//     return s;\n//   }\n// }\n\n\n// A stream of content and other streams\ncontract EtherStream {\n\n  // About this stream\n  uint      public created;\n  address   public owner;\n  string    public title;\n  bool      public public_stream;\n\n//   StreamFactory public stream_factory;\n\n  // Content in this stream\n  Content[] public content;\n  uint public content_count;\n\n  // Substream contracts\n  Stream[] public streams;\n  uint public stream_count;\n\n  struct Stream {\n    string title;\n    string preview_uri;\n    address addr;\n    uint love;\n    address creator;\n    uint created;\n  }\n\n  struct Content {\n    string title;\n    string preview_uri;\n    string uri;\n    uint love;\n    address creator;\n    uint created;\n  }\n\n  function EtherStream (address _owner, string _title, bool _public_stream)\n  public\n  {\n    created = block.timestamp;\n    owner = _owner;\n    title = _title;\n    public_stream = _public_stream;\n\n\n    // Example content\n    // newContent(\"Sintel\", \"magnet:?xt=urn:btih:08ada5a7a6183aae1e09d831df6748d566095a10\", \"magnet:?xt=urn:btih:8784ff95f26ea6b7e5347bb07c4ced42d133bcf6\");\n    // newContent(\"Sailing to Barrier\", \"magnet:?xt=urn:btih:08ada5a7a6183aae1e09d831df6748d566095a10\", \"magnet:?xt=urn:btih:8784ff95f26ea6b7e5347bb07c4ced42d133bcf6\");\n    // newContent(\"How to watch Ethereum Contracts\", \"magnet:?xt=urn:btih:08ada5a7a6183aae1e09d831df6748d566095a10\", \"magnet:?xt=urn:btih:8784ff95f26ea6b7e5347bb07c4ced42d133bcf6\");\n\n    // string _title, address _addr, string _preview_uri\n    // newStream(\"Cats\", _owner, \"magnet:?xt=urn:btih:8784ff95f26ea6b7e5347bb07c4ced42d133bcf6\");\n\n  }\n\n  // Add new content\n  function newContent(string _title, string _uri, string _preview_uri)\n  public\n  returns (uint ret_content_count) {\n    Content memory c;\n\n    c.title = _title;\n    c.uri = _uri;\n    c.preview_uri = _preview_uri;\n\n    c.love = 1;             // Everything starts with 1 love\n    c.creator = msg.sender; // creator\n\n    c.created = block.timestamp; // Current block timestamp UTC\n\n    content.push(c);\n    content_count = content.length;\n    ContentAdded(content_count, c.title, c.uri, c.preview_uri);\n\n    return content_count;\n  }\n\n  // Add a new substream\n  function newStream(string _title, address _addr, string _preview_uri)\n  public\n  returns (uint ret_streams_count) {\n    Stream memory s;\n\n    s.title = _title;\n    s.addr = _addr;\n    s.preview_uri = _preview_uri;\n\n    s.love = 1;             // Everything starts with 1 love\n    s.creator = msg.sender; // creator\n\n    s.created = block.timestamp; // Current block timestamp UTC\n\n    streams.push(s);\n    stream_count = streams.length;\n\n    return stream_count;\n  }\n\n\n  // Give some thanks to the creator of this content\n  function giveLove(uint content_id)\n  public\n  payable\n  {\n    // Add love to content\n    content[content_id].love += msg.value;\n\n    // send 1% to owner of stream\n    /*owner.transfer(msg.value * 0.01);*/\n\n    // re-order list\n\n    // Forward remaining ETH to creator\n    content[content_id].creator.transfer(msg.value);\n  }\n\n\n  event ContentAdded(uint content_id, string title, string uri, string preview_uri);\n}\n",
  "sourcePath": "/Users/joran/Documents/development/javascript/_Ethereum/etherStreams/contracts/EtherStream.sol",
  "compiler": {
    "name": "solc",
    "version": "0.4.23+commit.124ca40d.Emscripten.clang"
  },
  "schemaVersion": "2.0.0",
  "updatedAt": "2018-05-14T05:31:58.560Z"
}