{
  "contractName": "EtherStream",
  "abi": [
    {
      "constant": true,
      "inputs": [],
      "name": "content_count",
      "outputs": [
        {
          "name": "",
          "type": "uint256"
        }
      ],
      "payable": false,
      "stateMutability": "view",
      "type": "function"
    },
    {
      "constant": true,
      "inputs": [],
      "name": "created",
      "outputs": [
        {
          "name": "",
          "type": "uint256"
        }
      ],
      "payable": false,
      "stateMutability": "view",
      "type": "function"
    },
    {
      "constant": true,
      "inputs": [],
      "name": "title",
      "outputs": [
        {
          "name": "",
          "type": "string"
        }
      ],
      "payable": false,
      "stateMutability": "view",
      "type": "function"
    },
    {
      "constant": true,
      "inputs": [
        {
          "name": "",
          "type": "uint256"
        }
      ],
      "name": "streams",
      "outputs": [
        {
          "name": "title",
          "type": "string"
        },
        {
          "name": "preview_uri",
          "type": "string"
        },
        {
          "name": "addr",
          "type": "address"
        },
        {
          "name": "love",
          "type": "uint256"
        },
        {
          "name": "creator",
          "type": "address"
        },
        {
          "name": "created",
          "type": "uint256"
        }
      ],
      "payable": false,
      "stateMutability": "view",
      "type": "function"
    },
    {
      "constant": true,
      "inputs": [],
      "name": "owner",
      "outputs": [
        {
          "name": "",
          "type": "address"
        }
      ],
      "payable": false,
      "stateMutability": "view",
      "type": "function"
    },
    {
      "constant": true,
      "inputs": [],
      "name": "public_stream",
      "outputs": [
        {
          "name": "",
          "type": "bool"
        }
      ],
      "payable": false,
      "stateMutability": "view",
      "type": "function"
    },
    {
      "constant": true,
      "inputs": [
        {
          "name": "",
          "type": "uint256"
        }
      ],
      "name": "content",
      "outputs": [
        {
          "name": "title",
          "type": "string"
        },
        {
          "name": "preview_uri",
          "type": "string"
        },
        {
          "name": "uri",
          "type": "string"
        },
        {
          "name": "love",
          "type": "uint256"
        },
        {
          "name": "creator",
          "type": "address"
        },
        {
          "name": "created",
          "type": "uint256"
        }
      ],
      "payable": false,
      "stateMutability": "view",
      "type": "function"
    },
    {
      "constant": true,
      "inputs": [],
      "name": "stream_count",
      "outputs": [
        {
          "name": "",
          "type": "uint256"
        }
      ],
      "payable": false,
      "stateMutability": "view",
      "type": "function"
    },
    {
      "constant": true,
      "inputs": [],
      "name": "stream_factory",
      "outputs": [
        {
          "name": "",
          "type": "address"
        }
      ],
      "payable": false,
      "stateMutability": "view",
      "type": "function"
    },
    {
      "inputs": [
        {
          "name": "_owner",
          "type": "address"
        },
        {
          "name": "_title",
          "type": "string"
        },
        {
          "name": "_public_stream",
          "type": "bool"
        }
      ],
      "payable": false,
      "stateMutability": "nonpayable",
      "type": "constructor"
    },
    {
      "anonymous": false,
      "inputs": [
        {
          "indexed": false,
          "name": "content_id",
          "type": "uint256"
        },
        {
          "indexed": false,
          "name": "title",
          "type": "string"
        },
        {
          "indexed": false,
          "name": "uri",
          "type": "string"
        },
        {
          "indexed": false,
          "name": "preview_uri",
          "type": "string"
        }
      ],
      "name": "ContentAdded",
      "type": "event"
    },
    {
      "constant": false,
      "inputs": [
        {
          "name": "_title",
          "type": "string"
        },
        {
          "name": "_uri",
          "type": "string"
        },
        {
          "name": "_preview_uri",
          "type": "string"
        }
      ],
      "name": "newContent",
      "outputs": [
        {
          "name": "content_count",
          "type": "uint256"
        }
      ],
      "payable": false,
      "stateMutability": "nonpayable",
      "type": "function"
    },
    {
      "constant": false,
      "inputs": [
        {
          "name": "_title",
          "type": "string"
        },
        {
          "name": "_addr",
          "type": "address"
        },
        {
          "name": "_preview_uri",
          "type": "string"
        }
      ],
      "name": "newStream",
      "outputs": [
        {
          "name": "streams_count",
          "type": "uint256"
        }
      ],
      "payable": false,
      "stateMutability": "nonpayable",
      "type": "function"
    },
    {
      "constant": false,
      "inputs": [
        {
          "name": "content_id",
          "type": "uint256"
        }
      ],
      "name": "giveLove",
      "outputs": [],
      "payable": true,
      "stateMutability": "payable",
      "type": "function"
    }
  ],
  "bytecode": "0x606060405234156200001057600080fd5b60405162001ce538038062001ce5833981016040528080519060200190919080518201919060200180519060200190919050504260008190555082600160006101000a81548173ffffffffffffffffffffffffffffffffffffffff021916908373ffffffffffffffffffffffffffffffffffffffff1602179055508160029080519060200190620000a3929190620006f5565b5080600360006101000a81548160ff021916908315150217905550620001cc6040805190810160405280600681526020017f53696e74656c0000000000000000000000000000000000000000000000000000815250606060405190810160405280603c81526020017f6d61676e65743a3f78743d75726e3a627469683a30386164613561376136313881526020017f3361616531653039643833316466363734386435363630393561313000000000815250606060405190810160405280603c81526020017f6d61676e65743a3f78743d75726e3a627469683a38373834666639356632366581526020017f6136623765353334376262303763346365643432643133336263663600000000815250620003f46401000000000262000849176401000000009004565b50620002db6040805190810160405280601281526020017f5361696c696e6720746f20426172726965720000000000000000000000000000815250606060405190810160405280603c81526020017f6d61676e65743a3f78743d75726e3a627469683a30386164613561376136313881526020017f3361616531653039643833316466363734386435363630393561313000000000815250606060405190810160405280603c81526020017f6d61676e65743a3f78743d75726e3a627469683a38373834666639356632366581526020017f6136623765353334376262303763346365643432643133336263663600000000815250620003f46401000000000262000849176401000000009004565b50620003ea6040805190810160405280601f81526020017f486f7720746f20776174636820457468657265756d20436f6e74726163747300815250606060405190810160405280603c81526020017f6d61676e65743a3f78743d75726e3a627469683a30386164613561376136313881526020017f3361616531653039643833316466363734386435363630393561313000000000815250606060405190810160405280603c81526020017f6d61676e65743a3f78743d75726e3a627469683a38373834666639356632366581526020017f6136623765353334376262303763346365643432643133336263663600000000815250620003f46401000000000262000849176401000000009004565b50505050620009b4565b6000620004006200077c565b848160000181905250838160400181905250828160200181905250600181606001818152505033816080019073ffffffffffffffffffffffffffffffffffffffff16908173ffffffffffffffffffffffffffffffffffffffff1681525050428160a0018181525050600480548060010182816200047e9190620007e1565b916000526020600020906006020160008390919091506000820151816000019080519060200190620004b292919062000816565b506020820151816001019080519060200190620004d192919062000816565b506040820151816002019080519060200190620004f092919062000816565b506060820151816003015560808201518160040160006101000a81548173ffffffffffffffffffffffffffffffffffffffff021916908373ffffffffffffffffffffffffffffffffffffffff16021790555060a0820151816005015550505081806001019250507fbd39459eb5dfa9dc1565d46290988a236f92828d81660967143be77ab9f049288282600001518360400151846020015160405180858152602001806020018060200180602001848103845287818151815260200191508051906020019080838360005b83811015620005d8578082015181840152602081019050620005bb565b50505050905090810190601f168015620006065780820380516001836020036101000a031916815260200191505b50848103835286818151815260200191508051906020019080838360005b838110156200064157808201518184015260208101905062000624565b50505050905090810190601f1680156200066f5780820380516001836020036101000a031916815260200191505b50848103825285818151815260200191508051906020019080838360005b83811015620006aa5780820151818401526020810190506200068d565b50505050905090810190601f168015620006d85780820380516001836020036101000a031916815260200191505b5097505050505050505060405180910390a1819150509392505050565b828054600181600116156101000203166002900490600052602060002090601f016020900481019282601f106200073857805160ff191683800117855562000769565b8280016001018555821562000769579182015b82811115620007685782518255916020019190600101906200074b565b5b5090506200077891906200089d565b5090565b60c06040519081016040528062000792620008c5565b8152602001620007a1620008c5565b8152602001620007b0620008c5565b815260200160008152602001600073ffffffffffffffffffffffffffffffffffffffff168152602001600081525090565b8154818355818115116200081157600602816006028360005260206000209182019101620008109190620008d9565b5b505050565b828054600181600116156101000203166002900490600052602060002090601f016020900481019282601f106200085957805160ff19168380011785556200088a565b828001600101855582156200088a579182015b82811115620008895782518255916020019190600101906200086c565b5b5090506200089991906200089d565b5090565b620008c291905b80821115620008be576000816000905550600101620008a4565b5090565b90565b602060405190810160405280600081525090565b6200096591905b80821115620009615760008082016000620008fc919062000968565b6001820160006200090e919062000968565b60028201600062000920919062000968565b60038201600090556004820160006101000a81549073ffffffffffffffffffffffffffffffffffffffff0219169055600582016000905550600601620008e0565b5090565b90565b50805460018160011615610100020316600290046000825580601f10620009905750620009b1565b601f016020900490600052602060002090810190620009b091906200089d565b5b50565b61132180620009c46000396000f3006060604052600436106100ba576000357c0100000000000000000000000000000000000000000000000000000000900463ffffffff16806302336692146100bf57806317ef338b146100e8578063325a19f1146101df5780634a79d50c146102085780635bc9607e1461029657806364d60d91146102ae5780638da5cb5b14610464578063aa58c022146104b9578063baa0b806146104e6578063c99c3dad146106f2578063d6be24f7146107c5578063fced3051146107ee575b600080fd5b34156100ca57600080fd5b6100d2610843565b6040518082815260200191505060405180910390f35b34156100f357600080fd5b6101c9600480803590602001908201803590602001908080601f0160208091040260200160405190810160405280939291908181526020018383808284378201915050505050509190803590602001908201803590602001908080601f0160208091040260200160405190810160405280939291908181526020018383808284378201915050505050509190803590602001908201803590602001908080601f01602080910402602001604051908101604052809392919081815260200183838082843782019150505050505091905050610849565b6040518082815260200191505060405180910390f35b34156101ea57600080fd5b6101f2610b37565b6040518082815260200191505060405180910390f35b341561021357600080fd5b61021b610b3d565b6040518080602001828103825283818151815260200191508051906020019080838360005b8381101561025b578082015181840152602081019050610240565b50505050905090810190601f1680156102885780820380516001836020036101000a031916815260200191505b509250505060405180910390f35b6102ac6004808035906020019091905050610bdb565b005b34156102b957600080fd5b6102cf6004808035906020019091905050610c8c565b6040518080602001806020018773ffffffffffffffffffffffffffffffffffffffff1673ffffffffffffffffffffffffffffffffffffffff1681526020018681526020018573ffffffffffffffffffffffffffffffffffffffff1673ffffffffffffffffffffffffffffffffffffffff1681526020018481526020018381038352898181546001816001161561010002031660029004815260200191508054600181600116156101000203166002900480156103cc5780601f106103a1576101008083540402835291602001916103cc565b820191906000526020600020905b8154815290600101906020018083116103af57829003601f168201915b505083810382528881815460018160011615610100020316600290048152602001915080546001816001161561010002031660029004801561044f5780601f106104245761010080835404028352916020019161044f565b820191906000526020600020905b81548152906001019060200180831161043257829003601f168201915b50509850505050505050505060405180910390f35b341561046f57600080fd5b610477610d15565b604051808273ffffffffffffffffffffffffffffffffffffffff1673ffffffffffffffffffffffffffffffffffffffff16815260200191505060405180910390f35b34156104c457600080fd5b6104cc610d3b565b604051808215151515815260200191505060405180910390f35b34156104f157600080fd5b6105076004808035906020019091905050610d4e565b604051808060200180602001806020018781526020018673ffffffffffffffffffffffffffffffffffffffff1673ffffffffffffffffffffffffffffffffffffffff16815260200185815260200184810384528a8181546001816001161561010002031660029004815260200191508054600181600116156101000203166002900480156105d65780601f106105ab576101008083540402835291602001916105d6565b820191906000526020600020905b8154815290600101906020018083116105b957829003601f168201915b50508481038352898181546001816001161561010002031660029004815260200191508054600181600116156101000203166002900480156106595780601f1061062e57610100808354040283529160200191610659565b820191906000526020600020905b81548152906001019060200180831161063c57829003601f168201915b50508481038252888181546001816001161561010002031660029004815260200191508054600181600116156101000203166002900480156106dc5780601f106106b1576101008083540402835291602001916106dc565b820191906000526020600020905b8154815290600101906020018083116106bf57829003601f168201915b5050995050505050505050505060405180910390f35b34156106fd57600080fd5b6107af600480803590602001908201803590602001908080601f0160208091040260200160405190810160405280939291908181526020018383808284378201915050505050509190803573ffffffffffffffffffffffffffffffffffffffff1690602001909190803590602001908201803590602001908080601f01602080910402602001604051908101604052809392919081815260200183838082843782019150505050505091905050610db6565b6040518082815260200191505060405180910390f35b34156107d057600080fd5b6107d8610f73565b6040518082815260200191505060405180910390f35b34156107f957600080fd5b610801610f79565b604051808273ffffffffffffffffffffffffffffffffffffffff1673ffffffffffffffffffffffffffffffffffffffff16815260200191505060405180910390f35b60055481565b6000610853610f9f565b848160000181905250838160400181905250828160200181905250600181606001818152505033816080019073ffffffffffffffffffffffffffffffffffffffff16908173ffffffffffffffffffffffffffffffffffffffff1681525050428160a0018181525050600480548060010182816108cf9190610ffe565b916000526020600020906006020160008390919091506000820151816000019080519060200190610901929190611030565b50602082015181600101908051906020019061091e929190611030565b50604082015181600201908051906020019061093b929190611030565b506060820151816003015560808201518160040160006101000a81548173ffffffffffffffffffffffffffffffffffffffff021916908373ffffffffffffffffffffffffffffffffffffffff16021790555060a0820151816005015550505081806001019250507fbd39459eb5dfa9dc1565d46290988a236f92828d81660967143be77ab9f049288282600001518360400151846020015160405180858152602001806020018060200180602001848103845287818151815260200191508051906020019080838360005b83811015610a21578082015181840152602081019050610a06565b50505050905090810190601f168015610a4e5780820380516001836020036101000a031916815260200191505b50848103835286818151815260200191508051906020019080838360005b83811015610a87578082015181840152602081019050610a6c565b50505050905090810190601f168015610ab45780820380516001836020036101000a031916815260200191505b50848103825285818151815260200191508051906020019080838360005b83811015610aed578082015181840152602081019050610ad2565b50505050905090810190601f168015610b1a5780820380516001836020036101000a031916815260200191505b5097505050505050505060405180910390a1819150509392505050565b60005481565b60028054600181600116156101000203166002900480601f016020809104026020016040519081016040528092919081815260200182805460018160011615610100020316600290048015610bd35780601f10610ba857610100808354040283529160200191610bd3565b820191906000526020600020905b815481529060010190602001808311610bb657829003601f168201915b505050505081565b34600482815481101515610beb57fe5b906000526020600020906006020160030160008282540192505081905550600481815481101515610c1857fe5b906000526020600020906006020160040160009054906101000a900473ffffffffffffffffffffffffffffffffffffffff1673ffffffffffffffffffffffffffffffffffffffff166108fc349081150290604051600060405180830381858888f193505050501515610c8957600080fd5b50565b600681815481101515610c9b57fe5b9060005260206000209060060201600091509050806000019080600101908060020160009054906101000a900473ffffffffffffffffffffffffffffffffffffffff16908060030154908060040160009054906101000a900473ffffffffffffffffffffffffffffffffffffffff16908060050154905086565b600160009054906101000a900473ffffffffffffffffffffffffffffffffffffffff1681565b600360009054906101000a900460ff1681565b600481815481101515610d5d57fe5b90600052602060002090600602016000915090508060000190806001019080600201908060030154908060040160009054906101000a900473ffffffffffffffffffffffffffffffffffffffff16908060050154905086565b6000610dc06110b0565b84816000018190525083816040019073ffffffffffffffffffffffffffffffffffffffff16908173ffffffffffffffffffffffffffffffffffffffff1681525050828160200181905250600181606001818152505033816080019073ffffffffffffffffffffffffffffffffffffffff16908173ffffffffffffffffffffffffffffffffffffffff1681525050428160a001818152505060068054806001018281610e6b919061111f565b916000526020600020906006020160008390919091506000820151816000019080519060200190610e9d929190611030565b506020820151816001019080519060200190610eba929190611030565b5060408201518160020160006101000a81548173ffffffffffffffffffffffffffffffffffffffff021916908373ffffffffffffffffffffffffffffffffffffffff1602179055506060820151816003015560808201518160040160006101000a81548173ffffffffffffffffffffffffffffffffffffffff021916908373ffffffffffffffffffffffffffffffffffffffff16021790555060a082015181600501555050508180600101925050819150509392505050565b60075481565b600360019054906101000a900473ffffffffffffffffffffffffffffffffffffffff1681565b60c060405190810160405280610fb3611151565b8152602001610fc0611151565b8152602001610fcd611151565b815260200160008152602001600073ffffffffffffffffffffffffffffffffffffffff168152602001600081525090565b81548183558181151161102b5760060281600602836000526020600020918201910161102a9190611165565b5b505050565b828054600181600116156101000203166002900490600052602060002090601f016020900481019282601f1061107157805160ff191683800117855561109f565b8280016001018555821561109f579182015b8281111561109e578251825591602001919060010190611083565b5b5090506110ac91906111eb565b5090565b60c0604051908101604052806110c4611151565b81526020016110d1611151565b8152602001600073ffffffffffffffffffffffffffffffffffffffff16815260200160008152602001600073ffffffffffffffffffffffffffffffffffffffff168152602001600081525090565b81548183558181151161114c5760060281600602836000526020600020918201910161114b9190611210565b5b505050565b602060405190810160405280600081525090565b6111e891905b808211156111e4576000808201600061118491906112ad565b60018201600061119491906112ad565b6002820160006111a491906112ad565b60038201600090556004820160006101000a81549073ffffffffffffffffffffffffffffffffffffffff021916905560058201600090555060060161116b565b5090565b90565b61120d91905b808211156112095760008160009055506001016111f1565b5090565b90565b6112aa91905b808211156112a6576000808201600061122f91906112ad565b60018201600061123f91906112ad565b6002820160006101000a81549073ffffffffffffffffffffffffffffffffffffffff021916905560038201600090556004820160006101000a81549073ffffffffffffffffffffffffffffffffffffffff0219169055600582016000905550600601611216565b5090565b90565b50805460018160011615610100020316600290046000825580601f106112d357506112f2565b601f0160209004906000526020600020908101906112f191906111eb565b5b505600a165627a7a72305820283424cfded466270717237e577001596b1c663d2b39cce080b3bc82bde279e40029",
  "source": "pragma solidity ^0.4.10;\n\n// Used to build new streams\ncontract StreamFactory{\n  EtherStream[] public streams;\n\n  // Constructor\n  function StreamFactory(){\n  }\n\n  // Create a new stream\n  function newStream(string _title, bool _public)\n  public\n  returns(EtherStream newStream)\n  {\n    EtherStream s = new EtherStream(msg.sender, _title, _public);\n    return s;\n  }\n}\n\n\n// A stream of content and other streams\ncontract EtherStream {\n\n  // About this stream\n  uint public created;\n  address public owner;\n  string public title;\n  bool public public_stream;\n\n  StreamFactory public stream_factory;\n\n  // Content in this stream\n  Content[] public content;\n  uint public content_count;\n\n  // Substream contracts\n  Stream[] public streams;\n  uint public stream_count;\n\n  struct Stream {\n    string title;\n    string preview_uri;\n    address addr;\n    uint love;\n    address creator;\n    uint created;\n  }\n\n  struct Content {\n    string title;\n    string preview_uri;\n    string uri;\n    uint love;\n    address creator;\n    uint created;\n  }\n\n  function EtherStream (address _owner, string _title, bool _public_stream)\n  {\n    created = block.timestamp;\n    owner = _owner;\n    title = _title;\n    public_stream = _public_stream;\n\n\n    // Example content\n    newContent(\"Sintel\", \"magnet:?xt=urn:btih:08ada5a7a6183aae1e09d831df6748d566095a10\", \"magnet:?xt=urn:btih:8784ff95f26ea6b7e5347bb07c4ced42d133bcf6\");\n    newContent(\"Sailing to Barrier\", \"magnet:?xt=urn:btih:08ada5a7a6183aae1e09d831df6748d566095a10\", \"magnet:?xt=urn:btih:8784ff95f26ea6b7e5347bb07c4ced42d133bcf6\");\n    newContent(\"How to watch Ethereum Contracts\", \"magnet:?xt=urn:btih:08ada5a7a6183aae1e09d831df6748d566095a10\", \"magnet:?xt=urn:btih:8784ff95f26ea6b7e5347bb07c4ced42d133bcf6\");\n\n\n    // newStream(\"cats\");\n    /*newContent(\"Sintel\", \"magnet:?xt=urn:btih:08ada5a7a6183aae1e09d831df6748d566095a10\", \"magnet:?xt=urn:btih:8784ff95f26ea6b7e5347bb07c4ced42d133bcf6\");\n    newContent(\"Sintel\", \"magnet:?xt=urn:btih:08ada5a7a6183aae1e09d831df6748d566095a10\", \"magnet:?xt=urn:btih:7f22ddf7f9dfccd028de9f5ebdb72153a2c80be6\");\n    newContent(\"Sintel\", \"magnet:?xt=urn:btih:08ada5a7a6183aae1e09d831df6748d566095a10\", \"magnet:?xt=urn:btih:7f22ddf7f9dfccd028de9f5ebdb72153a2c80be6\");\n    newContent(\"Sintel\", \"magnet:?xt=urn:btih:08ada5a7a6183aae1e09d831df6748d566095a10\", \"magnet:?xt=urn:btih:7f22ddf7f9dfccd028de9f5ebdb72153a2c80be6\");\n    newContent(\"Sintel\", \"magnet:?xt=urn:btih:08ada5a7a6183aae1e09d831df6748d566095a10\", \"magnet:?xt=urn:btih:7f22ddf7f9dfccd028de9f5ebdb72153a2c80be6\");\n    newContent(\"Sintel\", \"magnet:?xt=urn:btih:08ada5a7a6183aae1e09d831df6748d566095a10\", \"magnet:?xt=urn:btih:7f22ddf7f9dfccd028de9f5ebdb72153a2c80be6\");\n    newContent(\"Sintel\", \"magnet:?xt=urn:btih:08ada5a7a6183aae1e09d831df6748d566095a10\", \"magnet:?xt=urn:btih:7f22ddf7f9dfccd028de9f5ebdb72153a2c80be6\");\n    newContent(\"Sintel\", \"magnet:?xt=urn:btih:08ada5a7a6183aae1e09d831df6748d566095a10\", \"magnet:?xt=urn:btih:7f22ddf7f9dfccd028de9f5ebdb72153a2c80be6\");\n    newContent(\"Sintel\", \"magnet:?xt=urn:btih:08ada5a7a6183aae1e09d831df6748d566095a10\", \"magnet:?xt=urn:btih:7f22ddf7f9dfccd028de9f5ebdb72153a2c80be6\");\n    newContent(\"Sintel\", \"magnet:?xt=urn:btih:08ada5a7a6183aae1e09d831df6748d566095a10\", \"magnet:?xt=urn:btih:7f22ddf7f9dfccd028de9f5ebdb72153a2c80be6\");\n    newContent(\"Sintel\", \"magnet:?xt=urn:btih:08ada5a7a6183aae1e09d831df6748d566095a10\", \"magnet:?xt=urn:btih:7f22ddf7f9dfccd028de9f5ebdb72153a2c80be6\");*/\n\n  }\n\n  // Add new content\n  function newContent(string _title, string _uri, string _preview_uri) returns (uint content_count) {\n    Content memory c;\n\n    c.title = _title;\n    c.uri = _uri;\n    c.preview_uri = _preview_uri;\n\n    c.love = 1;             // Everything starts with 1 love\n    c.creator = msg.sender; // creator\n\n    c.created = block.timestamp; // Current block timestamp UTC\n\n    content.push(c);\n    content_count++;\n    ContentAdded(content_count, c.title, c.uri, c.preview_uri);\n\n    return content_count;\n  }\n\n  // Add a new substream\n  function newStream(string _title, address _addr, string _preview_uri) returns (uint streams_count) {\n    Stream memory s;\n\n    s.title = _title;\n    s.addr = _addr;\n    s.preview_uri = _preview_uri;\n\n    s.love = 1;             // Everything starts with 1 love\n    s.creator = msg.sender; // creator\n\n    s.created = block.timestamp; // Current block timestamp UTC\n\n    streams.push(s);\n    streams_count++;\n\n    return streams_count;\n  }\n\n\n  // Give some thanks to the creator of this content\n  function giveLove(uint content_id) payable\n  {\n    // Add love to content\n    content[content_id].love += msg.value;\n\n    // send 1% to owner of stream\n    /*owner.transfer(msg.value * 0.01);*/\n\n    // re-order list\n\n    // Forward remaining ETH to creator\n    content[content_id].creator.transfer(msg.value);\n  }\n\n\n  event ContentAdded(uint content_id, string title, string uri, string preview_uri);\n}\n",
  "sourcePath": "/Users/joran/development/etherstreams/contracts/EtherStream.sol",
  "compiler": {
    "name": "solc",
    "version": "0.4.19+commit.c4cbbb05.Emscripten.clang"
  },
  "schemaVersion": "2.0.0",
  "updatedAt": "2018-03-12T03:18:32.870Z"
}