{
  "contractName": "LibCLLu",
  "abi": [
    {
      "constant": true,
      "inputs": [],
      "name": "VERSION",
      "outputs": [
        {
          "name": "",
          "type": "string"
        }
      ],
      "payable": false,
      "stateMutability": "view",
      "type": "function"
    }
  ],
  "bytecode": "0x6060604052341561000f57600080fd5b6101278061001e6000396000f300606060405260043610603f576000357c0100000000000000000000000000000000000000000000000000000000900463ffffffff168063ffa1ad74146044575b600080fd5b604a60c2565b6040518080602001828103825283818151815260200191508051906020019080838360005b838110156088578082015181840152602081019050606f565b50505050905090810190601f16801560b45780820380516001836020036101000a031916815260200191505b509250505060405180910390f35b6040805190810160405280600d81526020017f4c6962434c4c7520302e342e3000000000000000000000000000000000000000815250815600a165627a7a72305820e71d96f4dff96eb92fb839eb3991ed1554e1e0f72ecdf2c70724f122724d53f10029",
  "source": "/*\nfile:   LibCLL.sol\nver:    0.4.0\nupdated:31-Mar-2016\nauthor: Darryl Morris\nemail:  o0ragman0o AT gmail.com\n\nA Solidity library for implementing a data indexing regime using\na circular linked list.\n\nThis library provisions lookup, navigation and key/index storage\nfunctionality which can be used in conjunction with an array or mapping.\n\nNOTICE: This library uses internal functions only and so cannot be compiled\nand deployed independently from its calling contract.\n\nThis software is distributed in the hope that it will be useful,\nbut WITHOUT ANY WARRANTY; without even the implied warranty of\nMERCHANTABILITY or FITNESS FOR A PARTICULAR PURPOSE.\nSee MIT Licence for further details.\n<https://opensource.org/licenses/MIT>.\n*/\n\npragma solidity ^0.4.10;\n\n// LibCLL using `uint` keys\nlibrary LibCLLu {\n\n    string constant public VERSION = \"LibCLLu 0.4.0\";\n    uint constant NULL = 0;\n    uint constant HEAD = 0;\n    bool constant PREV = false;\n    bool constant NEXT = true;\n\n    struct CLL{\n        mapping (uint => mapping (bool => uint)) cll;\n    }\n\n    // n: node id  d: direction  r: return node id\n\n    // Return existential state of a list.\n    function exists(CLL storage self)\n        internal\n        constant returns (bool)\n    {\n        if (self.cll[HEAD][PREV] != HEAD || self.cll[HEAD][NEXT] != HEAD)\n            return true;\n    }\n\n    // Returns the number of elements in the list\n    function sizeOf(CLL storage self) internal constant returns (uint r) {\n        uint i = step(self, HEAD, NEXT);\n        while (i != HEAD) {\n            i = step(self, i, NEXT);\n            r++;\n        }\n        return;\n    }\n\n    // Returns the links of a node as and array\n    function getNode(CLL storage self, uint n)\n        internal  constant returns (uint[2])\n    {\n        return [self.cll[n][PREV], self.cll[n][NEXT]];\n    }\n\n    // Returns the link of a node `n` in direction `d`.\n    function step(CLL storage self, uint n, bool d)\n        internal  constant returns (uint)\n    {\n        return self.cll[n][d];\n    }\n\n    // Can be used before `insert` to build an ordered list\n    // `a` an existing node to search from, e.g. HEAD.\n    // `b` value to seek\n    // `r` first node beyond `b` in direction `d`\n    function seek(CLL storage self, uint a, uint b, bool d)\n        internal  constant returns (uint r)\n    {\n        r = step(self, a, d);\n        while  ((b!=r) && ((b < r) != d)) r = self.cll[r][d];\n        return;\n    }\n\n    // Creates a bidirectional link between two nodes on direction `d`\n    function stitch(CLL storage self, uint a, uint b, bool d) internal  {\n        self.cll[b][!d] = a;\n        self.cll[a][d] = b;\n    }\n\n    // Insert node `b` beside existing node `a` in direction `d`.\n    function insert (CLL storage self, uint a, uint b, bool d) internal  {\n        uint c = self.cll[a][d];\n        stitch (self, a, b, d);\n        stitch (self, b, c, d);\n    }\n\n    function remove(CLL storage self, uint n) internal returns (uint) {\n        if (n == NULL) return;\n        stitch(self, self.cll[n][PREV], self.cll[n][NEXT], NEXT);\n        delete self.cll[n][PREV];\n        delete self.cll[n][NEXT];\n        return n;\n    }\n\n    function push(CLL storage self, uint n, bool d) internal  {\n        insert(self, HEAD, n, d);\n    }\n\n    function pop(CLL storage self, bool d) internal returns (uint) {\n        return remove(self, step(self, HEAD, d));\n    }\n}\n",
  "sourcePath": "/Users/joran/development/etherstreams/contracts/LinkedList.sol",
  "compiler": {
    "name": "solc",
    "version": "0.4.19+commit.c4cbbb05.Emscripten.clang"
  },
  "schemaVersion": "2.0.0",
  "updatedAt": "2018-03-12T03:12:38.238Z"
}