{
  "contractName": "Stream",
  "abi": [
    {
      "constant": true,
      "inputs": [],
      "name": "content_count",
      "outputs": [
        {
          "name": "",
          "type": "uint256"
        }
      ],
      "payable": false,
      "stateMutability": "view",
      "type": "function"
    },
    {
      "constant": true,
      "inputs": [],
      "name": "created",
      "outputs": [
        {
          "name": "",
          "type": "uint256"
        }
      ],
      "payable": false,
      "stateMutability": "view",
      "type": "function"
    },
    {
      "constant": true,
      "inputs": [],
      "name": "title",
      "outputs": [
        {
          "name": "",
          "type": "string"
        }
      ],
      "payable": false,
      "stateMutability": "view",
      "type": "function"
    },
    {
      "constant": true,
      "inputs": [
        {
          "name": "",
          "type": "uint256"
        }
      ],
      "name": "streams",
      "outputs": [
        {
          "name": "",
          "type": "address"
        }
      ],
      "payable": false,
      "stateMutability": "view",
      "type": "function"
    },
    {
      "constant": true,
      "inputs": [],
      "name": "owner",
      "outputs": [
        {
          "name": "",
          "type": "address"
        }
      ],
      "payable": false,
      "stateMutability": "view",
      "type": "function"
    },
    {
      "constant": true,
      "inputs": [],
      "name": "public_stream",
      "outputs": [
        {
          "name": "",
          "type": "bool"
        }
      ],
      "payable": false,
      "stateMutability": "view",
      "type": "function"
    },
    {
      "constant": true,
      "inputs": [
        {
          "name": "",
          "type": "uint256"
        }
      ],
      "name": "content",
      "outputs": [
        {
          "name": "title",
          "type": "string"
        },
        {
          "name": "preview_uri",
          "type": "string"
        },
        {
          "name": "uri",
          "type": "string"
        },
        {
          "name": "love",
          "type": "uint256"
        },
        {
          "name": "creator",
          "type": "address"
        },
        {
          "name": "created",
          "type": "uint256"
        }
      ],
      "payable": false,
      "stateMutability": "view",
      "type": "function"
    },
    {
      "constant": true,
      "inputs": [],
      "name": "stream_count",
      "outputs": [
        {
          "name": "",
          "type": "uint256"
        }
      ],
      "payable": false,
      "stateMutability": "view",
      "type": "function"
    },
    {
      "constant": true,
      "inputs": [],
      "name": "stream_factory",
      "outputs": [
        {
          "name": "",
          "type": "address"
        }
      ],
      "payable": false,
      "stateMutability": "view",
      "type": "function"
    },
    {
      "inputs": [
        {
          "name": "_owner",
          "type": "address"
        },
        {
          "name": "_title",
          "type": "string"
        },
        {
          "name": "_public_stream",
          "type": "bool"
        },
        {
          "name": "_streamFactoryAddress",
          "type": "address"
        }
      ],
      "payable": false,
      "stateMutability": "nonpayable",
      "type": "constructor"
    },
    {
      "anonymous": false,
      "inputs": [
        {
          "indexed": false,
          "name": "content_id",
          "type": "uint256"
        },
        {
          "indexed": false,
          "name": "title",
          "type": "string"
        },
        {
          "indexed": false,
          "name": "uri",
          "type": "string"
        },
        {
          "indexed": false,
          "name": "preview_uri",
          "type": "string"
        }
      ],
      "name": "ContentAdded",
      "type": "event"
    },
    {
      "constant": false,
      "inputs": [
        {
          "name": "_title",
          "type": "string"
        },
        {
          "name": "_uri",
          "type": "string"
        },
        {
          "name": "_preview_uri",
          "type": "string"
        }
      ],
      "name": "newContent",
      "outputs": [
        {
          "name": "ret_content_count",
          "type": "uint256"
        }
      ],
      "payable": false,
      "stateMutability": "nonpayable",
      "type": "function"
    },
    {
      "constant": false,
      "inputs": [
        {
          "name": "_title",
          "type": "string"
        },
        {
          "name": "_preview_uri",
          "type": "string"
        }
      ],
      "name": "newStream",
      "outputs": [
        {
          "name": "ret_streams_count",
          "type": "uint256"
        }
      ],
      "payable": false,
      "stateMutability": "nonpayable",
      "type": "function"
    },
    {
      "constant": false,
      "inputs": [
        {
          "name": "content_id",
          "type": "uint256"
        }
      ],
      "name": "giveLove",
      "outputs": [],
      "payable": true,
      "stateMutability": "payable",
      "type": "function"
    }
  ],
  "bytecode": "0x608060405234801561001057600080fd5b50604051620012a3380380620012a3833981018060405281019080805190602001909291908051820192919060200180519060200190929190805190602001909291905050504260008190555083600160006101000a81548173ffffffffffffffffffffffffffffffffffffffff021916908373ffffffffffffffffffffffffffffffffffffffff16021790555082600290805190602001906100b4929190610119565b5081600360006101000a81548160ff02191690831515021790555080600360016101000a81548173ffffffffffffffffffffffffffffffffffffffff021916908373ffffffffffffffffffffffffffffffffffffffff160217905550505050506101be565b828054600181600116156101000203166002900490600052602060002090601f016020900481019282601f1061015a57805160ff1916838001178555610188565b82800160010185558215610188579182015b8281111561018757825182559160200191906001019061016c565b5b5090506101959190610199565b5090565b6101bb91905b808211156101b757600081600090555060010161019f565b5090565b90565b6110d580620001ce6000396000f3006080604052600436106100ba576000357c0100000000000000000000000000000000000000000000000000000000900463ffffffff16806302336692146100bf57806317ef338b146100ea5780632419eba4146101f3578063325a19f1146102b65780634a79d50c146102e15780635bc9607e1461037157806364d60d91146103915780638da5cb5b146103fe578063aa58c02214610455578063baa0b80614610484578063d6be24f714610643578063fced30511461066e575b600080fd5b3480156100cb57600080fd5b506100d46106c5565b6040518082815260200191505060405180910390f35b3480156100f657600080fd5b506101dd600480360381019080803590602001908201803590602001908080601f0160208091040260200160405190810160405280939291908181526020018383808284378201915050505050509192919290803590602001908201803590602001908080601f0160208091040260200160405190810160405280939291908181526020018383808284378201915050505050509192919290803590602001908201803590602001908080601f01602080910402602001604051908101604052809392919081815260200183838082843782019150505050505091929192905050506106cb565b6040518082815260200191505060405180910390f35b3480156101ff57600080fd5b506102a0600480360381019080803590602001908201803590602001908080601f0160208091040260200160405190810160405280939291908181526020018383808284378201915050505050509192919290803590602001908201803590602001908080601f01602080910402602001604051908101604052809392919081815260200183838082843782019150505050505091929192905050506109c5565b6040518082815260200191505060405180910390f35b3480156102c257600080fd5b506102cb610b85565b6040518082815260200191505060405180910390f35b3480156102ed57600080fd5b506102f6610b8b565b6040518080602001828103825283818151815260200191508051906020019080838360005b8381101561033657808201518184015260208101905061031b565b50505050905090810190601f1680156103635780820380516001836020036101000a031916815260200191505b509250505060405180910390f35b61038f60048036038101908080359060200190929190505050610c29565b005b34801561039d57600080fd5b506103bc60048036038101908080359060200190929190505050610ce1565b604051808273ffffffffffffffffffffffffffffffffffffffff1673ffffffffffffffffffffffffffffffffffffffff16815260200191505060405180910390f35b34801561040a57600080fd5b50610413610d1f565b604051808273ffffffffffffffffffffffffffffffffffffffff1673ffffffffffffffffffffffffffffffffffffffff16815260200191505060405180910390f35b34801561046157600080fd5b5061046a610d45565b604051808215151515815260200191505060405180910390f35b34801561049057600080fd5b506104af60048036038101908080359060200190929190505050610d58565b604051808060200180602001806020018781526020018673ffffffffffffffffffffffffffffffffffffffff1673ffffffffffffffffffffffffffffffffffffffff16815260200185815260200184810384528a818151815260200191508051906020019080838360005b8381101561053557808201518184015260208101905061051a565b50505050905090810190601f1680156105625780820380516001836020036101000a031916815260200191505b50848103835289818151815260200191508051906020019080838360005b8381101561059b578082015181840152602081019050610580565b50505050905090810190601f1680156105c85780820380516001836020036101000a031916815260200191505b50848103825288818151815260200191508051906020019080838360005b838110156106015780820151818401526020810190506105e6565b50505050905090810190601f16801561062e5780820380516001836020036101000a031916815260200191505b50995050505050505050505060405180910390f35b34801561064f57600080fd5b50610658610f8b565b6040518082815260200191505060405180910390f35b34801561067a57600080fd5b50610683610f91565b604051808273ffffffffffffffffffffffffffffffffffffffff1673ffffffffffffffffffffffffffffffffffffffff16815260200191505060405180910390f35b60055481565b60006106d5610fb7565b848160000181905250838160400181905250828160200181905250600181606001818152505033816080019073ffffffffffffffffffffffffffffffffffffffff16908173ffffffffffffffffffffffffffffffffffffffff1681525050428160a0018181525050600481908060018154018082558091505090600182039060005260206000209060060201600090919290919091506000820151816000019080519060200190610787929190611004565b5060208201518160010190805190602001906107a4929190611004565b5060408201518160020190805190602001906107c1929190611004565b506060820151816003015560808201518160040160006101000a81548173ffffffffffffffffffffffffffffffffffffffff021916908373ffffffffffffffffffffffffffffffffffffffff16021790555060a082015181600501555050506004805490506005819055507fbd39459eb5dfa9dc1565d46290988a236f92828d81660967143be77ab9f0492860055482600001518360400151846020015160405180858152602001806020018060200180602001848103845287818151815260200191508051906020019080838360005b838110156108ad578082015181840152602081019050610892565b50505050905090810190601f1680156108da5780820380516001836020036101000a031916815260200191505b50848103835286818151815260200191508051906020019080838360005b838110156109135780820151818401526020810190506108f8565b50505050905090810190601f1680156109405780820380516001836020036101000a031916815260200191505b50848103825285818151815260200191508051906020019080838360005b8381101561097957808201518184015260208101905061095e565b50505050905090810190601f1680156109a65780820380516001836020036101000a031916815260200191505b5097505050505050505060405180910390a16005549150509392505050565b600080600360019054906101000a900473ffffffffffffffffffffffffffffffffffffffff1673ffffffffffffffffffffffffffffffffffffffff16627669cd8560006040518363ffffffff167c0100000000000000000000000000000000000000000000000000000000028152600401808060200183151515158152602001828103825284818151815260200191508051906020019080838360005b83811015610a7d578082015181840152602081019050610a62565b50505050905090810190601f168015610aaa5780820380516001836020036101000a031916815260200191505b509350505050602060405180830381600087803b158015610aca57600080fd5b505af1158015610ade573d6000803e3d6000fd5b505050506040513d6020811015610af457600080fd5b8101908080519060200190929190505050905060068190806001815401808255809150509060018203906000526020600020016000909192909190916101000a81548173ffffffffffffffffffffffffffffffffffffffff021916908373ffffffffffffffffffffffffffffffffffffffff1602179055505060068054905060078190555060075491505092915050565b60005481565b60028054600181600116156101000203166002900480601f016020809104026020016040519081016040528092919081815260200182805460018160011615610100020316600290048015610c215780601f10610bf657610100808354040283529160200191610c21565b820191906000526020600020905b815481529060010190602001808311610c0457829003601f168201915b505050505081565b34600482815481101515610c3957fe5b906000526020600020906006020160030160008282540192505081905550600481815481101515610c6657fe5b906000526020600020906006020160040160009054906101000a900473ffffffffffffffffffffffffffffffffffffffff1673ffffffffffffffffffffffffffffffffffffffff166108fc349081150290604051600060405180830381858888f19350505050158015610cdd573d6000803e3d6000fd5b5050565b600681815481101515610cf057fe5b906000526020600020016000915054906101000a900473ffffffffffffffffffffffffffffffffffffffff1681565b600160009054906101000a900473ffffffffffffffffffffffffffffffffffffffff1681565b600360009054906101000a900460ff1681565b600481815481101515610d6757fe5b9060005260206000209060060201600091509050806000018054600181600116156101000203166002900480601f016020809104026020016040519081016040528092919081815260200182805460018160011615610100020316600290048015610e135780601f10610de857610100808354040283529160200191610e13565b820191906000526020600020905b815481529060010190602001808311610df657829003601f168201915b505050505090806001018054600181600116156101000203166002900480601f016020809104026020016040519081016040528092919081815260200182805460018160011615610100020316600290048015610eb15780601f10610e8657610100808354040283529160200191610eb1565b820191906000526020600020905b815481529060010190602001808311610e9457829003601f168201915b505050505090806002018054600181600116156101000203166002900480601f016020809104026020016040519081016040528092919081815260200182805460018160011615610100020316600290048015610f4f5780601f10610f2457610100808354040283529160200191610f4f565b820191906000526020600020905b815481529060010190602001808311610f3257829003601f168201915b5050505050908060030154908060040160009054906101000a900473ffffffffffffffffffffffffffffffffffffffff16908060050154905086565b60075481565b600360019054906101000a900473ffffffffffffffffffffffffffffffffffffffff1681565b60c06040519081016040528060608152602001606081526020016060815260200160008152602001600073ffffffffffffffffffffffffffffffffffffffff168152602001600081525090565b828054600181600116156101000203166002900490600052602060002090601f016020900481019282601f1061104557805160ff1916838001178555611073565b82800160010185558215611073579182015b82811115611072578251825591602001919060010190611057565b5b5090506110809190611084565b5090565b6110a691905b808211156110a257600081600090555060010161108a565b5090565b905600a165627a7a72305820d0289e2052e613f480f231552457dad7725647129c08de89f1060715dbf4077b0029",
  "source": "pragma solidity ^0.4.10;\n\nimport \"./EtherStreams.sol\";\n\n// A stream of content and other streams\ncontract Stream {\n\n  // About this stream\n  uint      public created;\n  address   public owner;\n  string    public title;\n  bool      public public_stream;\n\n  EtherStreams public stream_factory;\n  \n  // Content in this stream\n  Content[] public content;\n  uint public content_count;\n\n  // Substream contracts\n  Stream[] public streams;\n  uint public stream_count;\n\n  struct Content {\n    string title;\n    string preview_uri;\n    string uri;\n    uint love;\n    address creator;\n    uint created;\n  }\n\n  constructor (address _owner, string _title, bool _public_stream, address _streamFactoryAddress)\n  public\n  {\n    created = block.timestamp;\n    owner = _owner;\n    title = _title;\n    public_stream = _public_stream;\n    stream_factory = EtherStreams(_streamFactoryAddress);\n  }\n\n  // Add new content\n  function newContent(string _title, string _uri, string _preview_uri)\n  public\n  returns (uint ret_content_count) {\n    Content memory c;\n\n    c.title = _title;\n    c.uri = _uri;\n    c.preview_uri = _preview_uri;\n\n    c.love = 1;             // Everything starts with 1 love\n    c.creator = msg.sender; // creator\n\n    c.created = block.timestamp; // Current block timestamp UTC\n\n    content.push(c);\n    content_count = content.length;\n    emit ContentAdded(content_count, c.title, c.uri, c.preview_uri);\n\n    return content_count;\n  }\n\n  // Add a new substream\n  function newStream(string _title, string _preview_uri)\n  public\n  returns (uint ret_streams_count) {\n    Stream s = stream_factory.newStream( _title, false );\n\n    streams.push(s);\n    stream_count = streams.length;\n\n    return stream_count;    \n  }\n\n\n  // Give some thanks to the creator of this content\n  function giveLove(uint content_id)\n  public\n  payable\n  {\n    // Add love to content\n    content[content_id].love += msg.value;\n\n    // send 1% to owner of stream\n    // owner.transfer(msg.value * 0.01);\n\n    // cascade up the tree giving little bits to everyone until theres no more\n    // but also not blow the gas limit\n\n    // re-order list\n\n    // Forward remaining ETH to creator\n    content[content_id].creator.transfer(msg.value);\n  }\n\n\n  event ContentAdded(uint content_id, string title, string uri, string preview_uri);\n}\n",
  "sourcePath": "/Users/joran/Documents/development/javascript/_Ethereum/etherStreams/contracts/Stream.sol",
  "compiler": {
    "name": "solc",
    "version": "0.4.24+commit.e67f0147.Emscripten.clang"
  },
  "schemaVersion": "2.0.0",
  "updatedAt": "2018-12-11T03:24:01.498Z"
}